{
  "_format": "hh-sol-artifact-1",
  "contractName": "Box",
  "sourceName": "contracts/Box.sol",
  "abi": [
    {
      "anonymous": false,
      "inputs": [
        {
          "indexed": true,
          "internalType": "address",
          "name": "owner",
          "type": "address"
        },
        {
          "indexed": true,
          "internalType": "address",
          "name": "spender",
          "type": "address"
        },
        {
          "indexed": false,
          "internalType": "uint256",
          "name": "value",
          "type": "uint256"
        }
      ],
      "name": "Approval",
      "type": "event"
    },
    {
      "anonymous": false,
      "inputs": [
        {
          "indexed": true,
          "internalType": "address",
          "name": "operator",
          "type": "address"
        },
        {
          "indexed": true,
          "internalType": "address",
          "name": "tokenHolder",
          "type": "address"
        }
      ],
      "name": "AuthorizedOperator",
      "type": "event"
    },
    {
      "anonymous": false,
      "inputs": [
        {
          "indexed": true,
          "internalType": "address",
          "name": "operator",
          "type": "address"
        },
        {
          "indexed": true,
          "internalType": "address",
          "name": "from",
          "type": "address"
        },
        {
          "indexed": false,
          "internalType": "uint256",
          "name": "amount",
          "type": "uint256"
        },
        {
          "indexed": false,
          "internalType": "bytes",
          "name": "data",
          "type": "bytes"
        },
        {
          "indexed": false,
          "internalType": "bytes",
          "name": "operatorData",
          "type": "bytes"
        }
      ],
      "name": "Burned",
      "type": "event"
    },
    {
      "anonymous": false,
      "inputs": [
        {
          "indexed": false,
          "internalType": "uint256",
          "name": "newCap",
          "type": "uint256"
        },
        {
          "indexed": false,
          "internalType": "uint256",
          "name": "oldCap",
          "type": "uint256"
        }
      ],
      "name": "CapChange",
      "type": "event"
    },
    {
      "anonymous": false,
      "inputs": [
        {
          "indexed": true,
          "internalType": "address",
          "name": "operator",
          "type": "address"
        },
        {
          "indexed": true,
          "internalType": "address",
          "name": "to",
          "type": "address"
        },
        {
          "indexed": false,
          "internalType": "uint256",
          "name": "amount",
          "type": "uint256"
        },
        {
          "indexed": false,
          "internalType": "bytes",
          "name": "data",
          "type": "bytes"
        },
        {
          "indexed": false,
          "internalType": "bytes",
          "name": "operatorData",
          "type": "bytes"
        }
      ],
      "name": "Minted",
      "type": "event"
    },
    {
      "anonymous": false,
      "inputs": [
        {
          "indexed": false,
          "internalType": "uint256",
          "name": "newPrice",
          "type": "uint256"
        },
        {
          "indexed": false,
          "internalType": "uint256",
          "name": "oldPrice",
          "type": "uint256"
        }
      ],
      "name": "PriceChange",
      "type": "event"
    },
    {
      "anonymous": false,
      "inputs": [
        {
          "indexed": true,
          "internalType": "address",
          "name": "operator",
          "type": "address"
        },
        {
          "indexed": true,
          "internalType": "address",
          "name": "tokenHolder",
          "type": "address"
        }
      ],
      "name": "RevokedOperator",
      "type": "event"
    },
    {
      "anonymous": false,
      "inputs": [
        {
          "indexed": true,
          "internalType": "address",
          "name": "operator",
          "type": "address"
        },
        {
          "indexed": true,
          "internalType": "address",
          "name": "from",
          "type": "address"
        },
        {
          "indexed": true,
          "internalType": "address",
          "name": "to",
          "type": "address"
        },
        {
          "indexed": false,
          "internalType": "uint256",
          "name": "amount",
          "type": "uint256"
        },
        {
          "indexed": false,
          "internalType": "bytes",
          "name": "data",
          "type": "bytes"
        },
        {
          "indexed": false,
          "internalType": "bytes",
          "name": "operatorData",
          "type": "bytes"
        }
      ],
      "name": "Sent",
      "type": "event"
    },
    {
      "anonymous": false,
      "inputs": [
        {
          "indexed": true,
          "internalType": "address",
          "name": "from",
          "type": "address"
        },
        {
          "indexed": true,
          "internalType": "address",
          "name": "to",
          "type": "address"
        },
        {
          "indexed": false,
          "internalType": "uint256",
          "name": "value",
          "type": "uint256"
        }
      ],
      "name": "Transfer",
      "type": "event"
    },
    {
      "stateMutability": "payable",
      "type": "fallback"
    },
    {
      "inputs": [
        {
          "internalType": "uint256",
          "name": "_newPrice",
          "type": "uint256"
        }
      ],
      "name": "adjustPrice",
      "outputs": [],
      "stateMutability": "nonpayable",
      "type": "function"
    },
    {
      "inputs": [
        {
          "internalType": "address",
          "name": "holder",
          "type": "address"
        },
        {
          "internalType": "address",
          "name": "spender",
          "type": "address"
        }
      ],
      "name": "allowance",
      "outputs": [
        {
          "internalType": "uint256",
          "name": "",
          "type": "uint256"
        }
      ],
      "stateMutability": "view",
      "type": "function"
    },
    {
      "inputs": [
        {
          "internalType": "address",
          "name": "spender",
          "type": "address"
        },
        {
          "internalType": "uint256",
          "name": "value",
          "type": "uint256"
        }
      ],
      "name": "approve",
      "outputs": [
        {
          "internalType": "bool",
          "name": "",
          "type": "bool"
        }
      ],
      "stateMutability": "nonpayable",
      "type": "function"
    },
    {
      "inputs": [
        {
          "internalType": "address",
          "name": "operator",
          "type": "address"
        }
      ],
      "name": "authorizeOperator",
      "outputs": [],
      "stateMutability": "nonpayable",
      "type": "function"
    },
    {
      "inputs": [
        {
          "internalType": "address",
          "name": "tokenHolder",
          "type": "address"
        }
      ],
      "name": "balanceOf",
      "outputs": [
        {
          "internalType": "uint256",
          "name": "",
          "type": "uint256"
        }
      ],
      "stateMutability": "view",
      "type": "function"
    },
    {
      "inputs": [],
      "name": "basePrice",
      "outputs": [
        {
          "internalType": "uint256",
          "name": "",
          "type": "uint256"
        }
      ],
      "stateMutability": "view",
      "type": "function"
    },
    {
      "inputs": [
        {
          "internalType": "uint256",
          "name": "amount",
          "type": "uint256"
        },
        {
          "internalType": "bytes",
          "name": "data",
          "type": "bytes"
        }
      ],
      "name": "burn",
      "outputs": [],
      "stateMutability": "nonpayable",
      "type": "function"
    },
    {
      "inputs": [],
      "name": "buyToken",
      "outputs": [
        {
          "internalType": "uint256",
          "name": "amount",
          "type": "uint256"
        }
      ],
      "stateMutability": "payable",
      "type": "function"
    },
    {
      "inputs": [],
      "name": "decimals",
      "outputs": [
        {
          "internalType": "uint8",
          "name": "",
          "type": "uint8"
        }
      ],
      "stateMutability": "pure",
      "type": "function"
    },
    {
      "inputs": [],
      "name": "defaultOperators",
      "outputs": [
        {
          "internalType": "address[]",
          "name": "",
          "type": "address[]"
        }
      ],
      "stateMutability": "view",
      "type": "function"
    },
    {
      "inputs": [],
      "name": "granularity",
      "outputs": [
        {
          "internalType": "uint256",
          "name": "",
          "type": "uint256"
        }
      ],
      "stateMutability": "view",
      "type": "function"
    },
    {
      "inputs": [
        {
          "internalType": "uint256",
          "name": "_initialSupply",
          "type": "uint256"
        }
      ],
      "name": "increaseInitialSupply",
      "outputs": [],
      "stateMutability": "nonpayable",
      "type": "function"
    },
    {
      "inputs": [],
      "name": "initialize",
      "outputs": [],
      "stateMutability": "nonpayable",
      "type": "function"
    },
    {
      "inputs": [
        {
          "internalType": "address",
          "name": "operator",
          "type": "address"
        },
        {
          "internalType": "address",
          "name": "tokenHolder",
          "type": "address"
        }
      ],
      "name": "isOperatorFor",
      "outputs": [
        {
          "internalType": "bool",
          "name": "",
          "type": "bool"
        }
      ],
      "stateMutability": "view",
      "type": "function"
    },
    {
      "inputs": [],
      "name": "name",
      "outputs": [
        {
          "internalType": "string",
          "name": "",
          "type": "string"
        }
      ],
      "stateMutability": "view",
      "type": "function"
    },
    {
      "inputs": [
        {
          "internalType": "address",
          "name": "account",
          "type": "address"
        },
        {
          "internalType": "uint256",
          "name": "amount",
          "type": "uint256"
        },
        {
          "internalType": "bytes",
          "name": "data",
          "type": "bytes"
        },
        {
          "internalType": "bytes",
          "name": "operatorData",
          "type": "bytes"
        }
      ],
      "name": "operatorBurn",
      "outputs": [],
      "stateMutability": "nonpayable",
      "type": "function"
    },
    {
      "inputs": [
        {
          "internalType": "address",
          "name": "sender",
          "type": "address"
        },
        {
          "internalType": "address",
          "name": "recipient",
          "type": "address"
        },
        {
          "internalType": "uint256",
          "name": "amount",
          "type": "uint256"
        },
        {
          "internalType": "bytes",
          "name": "data",
          "type": "bytes"
        },
        {
          "internalType": "bytes",
          "name": "operatorData",
          "type": "bytes"
        }
      ],
      "name": "operatorSend",
      "outputs": [],
      "stateMutability": "nonpayable",
      "type": "function"
    },
    {
      "inputs": [],
      "name": "owner",
      "outputs": [
        {
          "internalType": "address",
          "name": "",
          "type": "address"
        }
      ],
      "stateMutability": "view",
      "type": "function"
    },
    {
      "inputs": [
        {
          "internalType": "address",
          "name": "",
          "type": "address"
        }
      ],
      "name": "pendingWithdrawals",
      "outputs": [
        {
          "internalType": "uint256",
          "name": "",
          "type": "uint256"
        }
      ],
      "stateMutability": "view",
      "type": "function"
    },
    {
      "inputs": [
        {
          "internalType": "address",
          "name": "operator",
          "type": "address"
        }
      ],
      "name": "revokeOperator",
      "outputs": [],
      "stateMutability": "nonpayable",
      "type": "function"
    },
    {
      "inputs": [
        {
          "internalType": "address",
          "name": "recipient",
          "type": "address"
        },
        {
          "internalType": "uint256",
          "name": "amount",
          "type": "uint256"
        },
        {
          "internalType": "bytes",
          "name": "data",
          "type": "bytes"
        }
      ],
      "name": "send",
      "outputs": [],
      "stateMutability": "nonpayable",
      "type": "function"
    },
    {
      "inputs": [],
      "name": "symbol",
      "outputs": [
        {
          "internalType": "string",
          "name": "",
          "type": "string"
        }
      ],
      "stateMutability": "view",
      "type": "function"
    },
    {
      "inputs": [],
      "name": "totalSupply",
      "outputs": [
        {
          "internalType": "uint256",
          "name": "",
          "type": "uint256"
        }
      ],
      "stateMutability": "view",
      "type": "function"
    },
    {
      "inputs": [
        {
          "internalType": "address",
          "name": "recipient",
          "type": "address"
        },
        {
          "internalType": "uint256",
          "name": "amount",
          "type": "uint256"
        }
      ],
      "name": "transfer",
      "outputs": [
        {
          "internalType": "bool",
          "name": "",
          "type": "bool"
        }
      ],
      "stateMutability": "nonpayable",
      "type": "function"
    },
    {
      "inputs": [
        {
          "internalType": "address",
          "name": "holder",
          "type": "address"
        },
        {
          "internalType": "address",
          "name": "recipient",
          "type": "address"
        },
        {
          "internalType": "uint256",
          "name": "amount",
          "type": "uint256"
        }
      ],
      "name": "transferFrom",
      "outputs": [
        {
          "internalType": "bool",
          "name": "",
          "type": "bool"
        }
      ],
      "stateMutability": "nonpayable",
      "type": "function"
    },
    {
      "inputs": [
        {
          "internalType": "uint256",
          "name": "tokens",
          "type": "uint256"
        }
      ],
      "name": "withdraw",
      "outputs": [
        {
          "internalType": "bool",
          "name": "",
          "type": "bool"
        }
      ],
      "stateMutability": "nonpayable",
      "type": "function"
    },
    {
      "stateMutability": "payable",
      "type": "receive"
    }
  ],
  "bytecode": "0x608060405234801561001057600080fd5b5061466b806100206000396000f3fe6080604052600436106101855760003560e01c8063959b8c3f116100d1578063c7876ea41161008a578063f3f4370311610064578063f3f43703146105a5578063fad8b32a146105e2578063fc673c4f1461060b578063fe9d93031461063457610195565b8063c7876ea414610500578063d95b63711461052b578063dd62ed3e1461056857610195565b8063959b8c3f146103ff57806395d89b41146104285780639bd9bbc6146104535780639f484a511461047c578063a4821719146104a5578063a9059cbb146104c357610195565b8063313ce5671161013e57806370a082311161011857806370a082311461035757806372bf079e146103945780638129fc1c146103bd5780638da5cb5b146103d457610195565b8063313ce567146102d8578063556f0dc71461030357806362ad1b831461032e57610195565b806306e48538146101a057806306fdde03146101cb578063095ea7b3146101f657806318160ddd1461023357806323b872dd1461025e5780632e1a7d4d1461029b57610195565b366101955761019261065d565b50005b61019d61065d565b50005b3480156101ac57600080fd5b506101b5610896565b6040516101c29190613cf0565b60405180910390f35b3480156101d757600080fd5b506101e0610924565b6040516101ed9190613d2d565b60405180910390f35b34801561020257600080fd5b5061021d6004803603810190610218919061314b565b6109b6565b60405161022a9190613d12565b60405180910390f35b34801561023f57600080fd5b506102486109d9565b6040516102559190613fef565b60405180910390f35b34801561026a57600080fd5b5061028560048036038101906102809190613055565b6109e3565b6040516102929190613d12565b60405180910390f35b3480156102a757600080fd5b506102c260048036038101906102bd9190613281565b610c3d565b6040516102cf9190613d12565b60405180910390f35b3480156102e457600080fd5b506102ed610d82565b6040516102fa9190614078565b60405180910390f35b34801561030f57600080fd5b50610318610d8b565b6040516103259190613fef565b60405180910390f35b34801561033a57600080fd5b50610355600480360381019061035091906130a4565b610d94565b005b34801561036357600080fd5b5061037e60048036038101906103799190612fc7565b610dfa565b60405161038b9190613fef565b60405180910390f35b3480156103a057600080fd5b506103bb60048036038101906103b69190613281565b610e43565b005b3480156103c957600080fd5b506103d2610f1e565b005b3480156103e057600080fd5b506103e9611163565b6040516103f69190613c06565b60405180910390f35b34801561040b57600080fd5b5061042660048036038101906104219190612fc7565b611189565b005b34801561043457600080fd5b5061043d6113ea565b60405161044a9190613d2d565b60405180910390f35b34801561045f57600080fd5b5061047a60048036038101906104759190613187565b61147c565b005b34801561048857600080fd5b506104a3600480360381019061049e9190613281565b6114a6565b005b6104ad61065d565b6040516104ba9190613fef565b60405180910390f35b3480156104cf57600080fd5b506104ea60048036038101906104e5919061314b565b6115e5565b6040516104f79190613d12565b60405180910390f35b34801561050c57600080fd5b506105156116f3565b6040516105229190613fef565b60405180910390f35b34801561053757600080fd5b50610552600480360381019061054d9190613019565b6116f9565b60405161055f9190613d12565b60405180910390f35b34801561057457600080fd5b5061058f600480360381019061058a9190613019565b6118aa565b60405161059c9190613fef565b60405180910390f35b3480156105b157600080fd5b506105cc60048036038101906105c79190612fc7565b611931565b6040516105d99190613fef565b60405180910390f35b3480156105ee57600080fd5b5061060960048036038101906106049190612fc7565b611949565b005b34801561061757600080fd5b50610632600480360381019061062d91906131ee565b611baa565b005b34801561064057600080fd5b5061065b600480360381019061065691906132aa565b611c0c565b005b60008034116106a1576040517f08c379a000000000000000000000000000000000000000000000000000000000815260040161069890613f6f565b60405180910390fd5b6065543410156106e6576040517f08c379a00000000000000000000000000000000000000000000000000000000081526004016106dd90613daf565b60405180910390fd5b600073ffffffffffffffffffffffffffffffffffffffff163373ffffffffffffffffffffffffffffffffffffffff161415610756576040517f08c379a000000000000000000000000000000000000000000000000000000000815260040161074d90613ecf565b60405180910390fd5b6000606554610763610d82565b60ff16600a610772919061423f565b600161077e919061435d565b61078891906141bb565b9050610792610d82565b60ff16600a6107a1919061423f565b670de0b6b3a764000082346107b6919061435d565b6107c091906141bb565b6107ca919061435d565b915034606760003373ffffffffffffffffffffffffffffffffffffffff1673ffffffffffffffffffffffffffffffffffffffff168152602001908152602001600020600082825461081b9190614165565b92505081905550610892606660009054906101000a900473ffffffffffffffffffffffffffffffffffffffff16606660009054906101000a900473ffffffffffffffffffffffffffffffffffffffff1633856040518060200160405280600081525060405180602001604052806000815250611c32565b5090565b6060603780548060200260200160405190810160405280929190818152602001828054801561091a57602002820191906000526020600020905b8160009054906101000a900473ffffffffffffffffffffffffffffffffffffffff1673ffffffffffffffffffffffffffffffffffffffff16815260200190600101908083116108d0575b5050505050905090565b6060603580546109339061448c565b80601f016020809104026020016040519081016040528092919081815260200182805461095f9061448c565b80156109ac5780601f10610981576101008083540402835291602001916109ac565b820191906000526020600020905b81548152906001019060200180831161098f57829003601f168201915b5050505050905090565b6000806109c1611e58565b90506109ce818585611e60565b600191505092915050565b6000603454905090565b60008073ffffffffffffffffffffffffffffffffffffffff168373ffffffffffffffffffffffffffffffffffffffff161415610a54576040517f08c379a0000000000000000000000000000000000000000000000000000000008152600401610a4b90613e8f565b60405180910390fd5b600073ffffffffffffffffffffffffffffffffffffffff168473ffffffffffffffffffffffffffffffffffffffff161415610ac4576040517f08c379a0000000000000000000000000000000000000000000000000000000008152600401610abb90613f4f565b60405180910390fd5b6000610ace611e58565b9050610afc81868686604051806020016040528060008152506040518060200160405280600081525061202b565b610b28818686866040518060200160405280600081525060405180602001604052806000815250611c32565b6000603b60008773ffffffffffffffffffffffffffffffffffffffff1673ffffffffffffffffffffffffffffffffffffffff16815260200190815260200160002060008373ffffffffffffffffffffffffffffffffffffffff1673ffffffffffffffffffffffffffffffffffffffff16815260200190815260200160002054905083811015610bec576040517f08c379a0000000000000000000000000000000000000000000000000000000008152600401610be390613f2f565b60405180910390fd5b610c0286838684610bfd91906143b7565b611e60565b610c3082878787604051806020016040528060008152506040518060200160405280600081525060006121a1565b6001925050509392505050565b6000610c4833610dfa565b670de0b6b3a764000083610c5c919061435d565b1115610c9d576040517f08c379a0000000000000000000000000000000000000000000000000000000008152600401610c9490613eef565b60405180910390fd5b600060655483610cad919061435d565b90503373ffffffffffffffffffffffffffffffffffffffff166108fc829081150290604051600060405180830381858888f19350505050158015610cf5573d6000803e3d6000fd5b5080606760003373ffffffffffffffffffffffffffffffffffffffff1673ffffffffffffffffffffffffffffffffffffffff1681526020019081526020016000206000828254610d4591906143b7565b92505081905550610d78670de0b6b3a764000084610d63919061435d565b60405180602001604052806000815250611c0c565b6001915050919050565b60006012905090565b60006001905090565b610da5610d9f611e58565b866116f9565b610de4576040517f08c379a0000000000000000000000000000000000000000000000000000000008152600401610ddb90613f0f565b60405180910390fd5b610df385858585856001612382565b5050505050565b6000603360008373ffffffffffffffffffffffffffffffffffffffff1673ffffffffffffffffffffffffffffffffffffffff168152602001908152602001600020549050919050565b606660009054906101000a900473ffffffffffffffffffffffffffffffffffffffff1673ffffffffffffffffffffffffffffffffffffffff163373ffffffffffffffffffffffffffffffffffffffff1614610ed3576040517f08c379a0000000000000000000000000000000000000000000000000000000008152600401610eca90613eaf565b60405180910390fd5b60006065549050816065819055507ffe6b606ca0477592b5740a0eb00c8e91570a5d0eb736abfa1a6309bd081b4a4d8282604051610f1292919061404f565b60405180910390a15050565b600060019054906101000a900460ff1680610f44575060008054906101000a900460ff16155b610f83576040517f08c379a0000000000000000000000000000000000000000000000000000000008152600401610f7a90613e2f565b60405180910390fd5b60008060019054906101000a900460ff161590508015610fd3576001600060016101000a81548160ff02191690831515021790555060016000806101000a81548160ff0219169083151502179055505b61109a604051806060016040528060268152602001614610602691396040518060400160405280600581526020017f5652454954000000000000000000000000000000000000000000000000000000815250600067ffffffffffffffff811115611066577f4e487b7100000000000000000000000000000000000000000000000000000000600052604160045260246000fd5b6040519080825280602002602001820160405280156110945781602001602082028036833780820191505090505b506124a2565b656d23ad5f800060658190555033606660006101000a81548173ffffffffffffffffffffffffffffffffffffffff021916908373ffffffffffffffffffffffffffffffffffffffff16021790555061113f606660009054906101000a900473ffffffffffffffffffffffffffffffffffffffff166a52b7d2dcc80cd2e40000006040518060200160405280600081525060405180602001604052806000815250612591565b80156111605760008060016101000a81548160ff0219169083151502179055505b50565b606660009054906101000a900473ffffffffffffffffffffffffffffffffffffffff1681565b8073ffffffffffffffffffffffffffffffffffffffff166111a8611e58565b73ffffffffffffffffffffffffffffffffffffffff1614156111ff576040517f08c379a00000000000000000000000000000000000000000000000000000000081526004016111f690613def565b60405180910390fd5b603860008273ffffffffffffffffffffffffffffffffffffffff1673ffffffffffffffffffffffffffffffffffffffff16815260200190815260200160002060009054906101000a900460ff16156112e957603a600061125d611e58565b73ffffffffffffffffffffffffffffffffffffffff1673ffffffffffffffffffffffffffffffffffffffff16815260200190815260200160002060008273ffffffffffffffffffffffffffffffffffffffff1673ffffffffffffffffffffffffffffffffffffffff16815260200190815260200160002060006101000a81549060ff0219169055611386565b6001603960006112f7611e58565b73ffffffffffffffffffffffffffffffffffffffff1673ffffffffffffffffffffffffffffffffffffffff16815260200190815260200160002060008373ffffffffffffffffffffffffffffffffffffffff1673ffffffffffffffffffffffffffffffffffffffff16815260200190815260200160002060006101000a81548160ff0219169083151502179055505b61138e611e58565b73ffffffffffffffffffffffffffffffffffffffff168173ffffffffffffffffffffffffffffffffffffffff167ff4caeb2d6ca8932a215a353d0703c326ec2d81fc68170f320eb2ab49e9df61f960405160405180910390a350565b6060603680546113f99061448c565b80601f01602080910402602001604051908101604052809291908181526020018280546114259061448c565b80156114725780601f1061144757610100808354040283529160200191611472565b820191906000526020600020905b81548152906001019060200180831161145557829003601f168201915b5050505050905090565b6114a1611487611e58565b848484604051806020016040528060008152506001612382565b505050565b606660009054906101000a900473ffffffffffffffffffffffffffffffffffffffff1673ffffffffffffffffffffffffffffffffffffffff163373ffffffffffffffffffffffffffffffffffffffff1614611536576040517f08c379a000000000000000000000000000000000000000000000000000000000815260040161152d90613eaf565b60405180910390fd5b60006115406109d9565b90506115a1606660009054906101000a900473ffffffffffffffffffffffffffffffffffffffff16670de0b6b3a76400008461157c919061435d565b6040518060200160405280600081525060405180602001604052806000815250612591565b7fe33ab2ea612635770f109d34ef704ae0b0ff4185179b98530e28727d96f194676115ca6109d9565b826040516115d992919061404f565b60405180910390a15050565b60008073ffffffffffffffffffffffffffffffffffffffff168373ffffffffffffffffffffffffffffffffffffffff161415611656576040517f08c379a000000000000000000000000000000000000000000000000000000000815260040161164d90613e8f565b60405180910390fd5b6000611660611e58565b905061168e81828686604051806020016040528060008152506040518060200160405280600081525061202b565b6116ba818286866040518060200160405280600081525060405180602001604052806000815250611c32565b6116e881828686604051806020016040528060008152506040518060200160405280600081525060006121a1565b600191505092915050565b60655481565b60008173ffffffffffffffffffffffffffffffffffffffff168373ffffffffffffffffffffffffffffffffffffffff1614806118115750603860008473ffffffffffffffffffffffffffffffffffffffff1673ffffffffffffffffffffffffffffffffffffffff16815260200190815260200160002060009054906101000a900460ff1680156118105750603a60008373ffffffffffffffffffffffffffffffffffffffff1673ffffffffffffffffffffffffffffffffffffffff16815260200190815260200160002060008473ffffffffffffffffffffffffffffffffffffffff1673ffffffffffffffffffffffffffffffffffffffff16815260200190815260200160002060009054906101000a900460ff16155b5b806118a25750603960008373ffffffffffffffffffffffffffffffffffffffff1673ffffffffffffffffffffffffffffffffffffffff16815260200190815260200160002060008473ffffffffffffffffffffffffffffffffffffffff1673ffffffffffffffffffffffffffffffffffffffff16815260200190815260200160002060009054906101000a900460ff165b905092915050565b6000603b60008473ffffffffffffffffffffffffffffffffffffffff1673ffffffffffffffffffffffffffffffffffffffff16815260200190815260200160002060008373ffffffffffffffffffffffffffffffffffffffff1673ffffffffffffffffffffffffffffffffffffffff16815260200190815260200160002054905092915050565b60676020528060005260406000206000915090505481565b611951611e58565b73ffffffffffffffffffffffffffffffffffffffff168173ffffffffffffffffffffffffffffffffffffffff1614156119bf576040517f08c379a00000000000000000000000000000000000000000000000000000000081526004016119b690613e0f565b60405180910390fd5b603860008273ffffffffffffffffffffffffffffffffffffffff1673ffffffffffffffffffffffffffffffffffffffff16815260200190815260200160002060009054906101000a900460ff1615611ab2576001603a6000611a1f611e58565b73ffffffffffffffffffffffffffffffffffffffff1673ffffffffffffffffffffffffffffffffffffffff16815260200190815260200160002060008373ffffffffffffffffffffffffffffffffffffffff1673ffffffffffffffffffffffffffffffffffffffff16815260200190815260200160002060006101000a81548160ff021916908315150217905550611b46565b60396000611abe611e58565b73ffffffffffffffffffffffffffffffffffffffff1673ffffffffffffffffffffffffffffffffffffffff16815260200190815260200160002060008273ffffffffffffffffffffffffffffffffffffffff1673ffffffffffffffffffffffffffffffffffffffff16815260200190815260200160002060006101000a81549060ff02191690555b611b4e611e58565b73ffffffffffffffffffffffffffffffffffffffff168173ffffffffffffffffffffffffffffffffffffffff167f50546e66e5f44d728365dc3908c63bc5cfeeab470722c1677e3073a6ac294aa160405160405180910390a350565b611bbb611bb5611e58565b856116f9565b611bfa576040517f08c379a0000000000000000000000000000000000000000000000000000000008152600401611bf190613f0f565b60405180910390fd5b611c06848484846125a5565b50505050565b611c2e611c17611e58565b8383604051806020016040528060008152506125a5565b5050565b611c3e86868686612803565b6000603360008773ffffffffffffffffffffffffffffffffffffffff1673ffffffffffffffffffffffffffffffffffffffff16815260200190815260200160002054905083811015611cc5576040517f08c379a0000000000000000000000000000000000000000000000000000000008152600401611cbc90613d8f565b60405180910390fd5b8381611cd191906143b7565b603360008873ffffffffffffffffffffffffffffffffffffffff1673ffffffffffffffffffffffffffffffffffffffff1681526020019081526020016000208190555083603360008773ffffffffffffffffffffffffffffffffffffffff1673ffffffffffffffffffffffffffffffffffffffff1681526020019081526020016000206000828254611d639190614165565b925050819055508473ffffffffffffffffffffffffffffffffffffffff168673ffffffffffffffffffffffffffffffffffffffff168873ffffffffffffffffffffffffffffffffffffffff167f06b541ddaa720db2b10a4d0cdac39b8d360425fc073085fac19bc82614677987878787604051611de29392919061400a565b60405180910390a48473ffffffffffffffffffffffffffffffffffffffff168673ffffffffffffffffffffffffffffffffffffffff167fddf252ad1be2c89b69c2b068fc378daa952ba7f163c4a11628f55a4df523b3ef86604051611e479190613fef565b60405180910390a350505050505050565b600033905090565b600073ffffffffffffffffffffffffffffffffffffffff168373ffffffffffffffffffffffffffffffffffffffff161415611ed0576040517f08c379a0000000000000000000000000000000000000000000000000000000008152600401611ec790613d4f565b60405180910390fd5b600073ffffffffffffffffffffffffffffffffffffffff168273ffffffffffffffffffffffffffffffffffffffff161415611f40576040517f08c379a0000000000000000000000000000000000000000000000000000000008152600401611f3790613fcf565b60405180910390fd5b80603b60008573ffffffffffffffffffffffffffffffffffffffff1673ffffffffffffffffffffffffffffffffffffffff16815260200190815260200160002060008473ffffffffffffffffffffffffffffffffffffffff1673ffffffffffffffffffffffffffffffffffffffff168152602001908152602001600020819055508173ffffffffffffffffffffffffffffffffffffffff168373ffffffffffffffffffffffffffffffffffffffff167f8c5be1e5ebec7d5bd14f71427d1e84f3dd0314c0f7b2291e5b200ac8c7c3b9258360405161201e9190613fef565b60405180910390a3505050565b6000731820a4b7618bde71dce8cdc73aab6c95905fad2473ffffffffffffffffffffffffffffffffffffffff1663aabbb8ca877f29ddb589b1fb5fc7cf394961c1adf5f8c6454761adf795e67fe149f658abe8956040518363ffffffff1660e01b815260040161209c929190613c90565b60206040518083038186803b1580156120b457600080fd5b505afa1580156120c8573d6000803e3d6000fd5b505050506040513d601f19601f820116820180604052508101906120ec9190612ff0565b9050600073ffffffffffffffffffffffffffffffffffffffff168173ffffffffffffffffffffffffffffffffffffffff1614612198578073ffffffffffffffffffffffffffffffffffffffff166375ab97828888888888886040518763ffffffff1660e01b815260040161216596959493929190613c21565b600060405180830381600087803b15801561217f57600080fd5b505af1158015612193573d6000803e3d6000fd5b505050505b50505050505050565b6000731820a4b7618bde71dce8cdc73aab6c95905fad2473ffffffffffffffffffffffffffffffffffffffff1663aabbb8ca877fb281fc8c12954d22544db45de3159a39272895b169a852b314f9cc762e44c53b6040518363ffffffff1660e01b8152600401612212929190613c90565b60206040518083038186803b15801561222a57600080fd5b505afa15801561223e573d6000803e3d6000fd5b505050506040513d601f19601f820116820180604052508101906122629190612ff0565b9050600073ffffffffffffffffffffffffffffffffffffffff168173ffffffffffffffffffffffffffffffffffffffff1614612311578073ffffffffffffffffffffffffffffffffffffffff166223de298989898989896040518763ffffffff1660e01b81526004016122da96959493929190613c21565b600060405180830381600087803b1580156122f457600080fd5b505af1158015612308573d6000803e3d6000fd5b50505050612378565b8115612377576123368673ffffffffffffffffffffffffffffffffffffffff16612809565b15612376576040517f08c379a000000000000000000000000000000000000000000000000000000000815260040161236d90613e6f565b60405180910390fd5b5b5b5050505050505050565b600073ffffffffffffffffffffffffffffffffffffffff168673ffffffffffffffffffffffffffffffffffffffff1614156123f2576040517f08c379a00000000000000000000000000000000000000000000000000000000081526004016123e990613d6f565b60405180910390fd5b600073ffffffffffffffffffffffffffffffffffffffff168573ffffffffffffffffffffffffffffffffffffffff161415612462576040517f08c379a000000000000000000000000000000000000000000000000000000000815260040161245990613faf565b60405180910390fd5b600061246c611e58565b905061247c81888888888861202b565b61248a818888888888611c32565b612499818888888888886121a1565b50505050505050565b600060019054906101000a900460ff16806124c8575060008054906101000a900460ff16155b612507576040517f08c379a00000000000000000000000000000000000000000000000000000000081526004016124fe90613e2f565b60405180910390fd5b60008060019054906101000a900460ff161590508015612557576001600060016101000a81548160ff02191690831515021790555060016000806101000a81548160ff0219169083151502179055505b61255f61281c565b61256a8484846128f5565b801561258b5760008060016101000a81548160ff0219169083151502179055505b50505050565b61259f848484846001612c14565b50505050565b600073ffffffffffffffffffffffffffffffffffffffff168473ffffffffffffffffffffffffffffffffffffffff161415612615576040517f08c379a000000000000000000000000000000000000000000000000000000000815260040161260c90613dcf565b60405180910390fd5b600061261f611e58565b90506126308186600087878761202b565b61263d8186600087612803565b6000603360008773ffffffffffffffffffffffffffffffffffffffff1673ffffffffffffffffffffffffffffffffffffffff168152602001908152602001600020549050848110156126c4576040517f08c379a00000000000000000000000000000000000000000000000000000000081526004016126bb90613f8f565b60405180910390fd5b84816126d091906143b7565b603360008873ffffffffffffffffffffffffffffffffffffffff1673ffffffffffffffffffffffffffffffffffffffff16815260200190815260200160002081905550846034600082825461272591906143b7565b925050819055508573ffffffffffffffffffffffffffffffffffffffff168273ffffffffffffffffffffffffffffffffffffffff167fa78a9be3a7b862d26933ad85fb11d80ef66b8f972d7cbba06621d583943a409887878760405161278d9392919061400a565b60405180910390a3600073ffffffffffffffffffffffffffffffffffffffff168673ffffffffffffffffffffffffffffffffffffffff167fddf252ad1be2c89b69c2b068fc378daa952ba7f163c4a11628f55a4df523b3ef876040516127f39190613fef565b60405180910390a3505050505050565b50505050565b600080823b905060008111915050919050565b600060019054906101000a900460ff1680612842575060008054906101000a900460ff16155b612881576040517f08c379a000000000000000000000000000000000000000000000000000000000815260040161287890613e2f565b60405180910390fd5b60008060019054906101000a900460ff1615905080156128d1576001600060016101000a81548160ff02191690831515021790555060016000806101000a81548160ff0219169083151502179055505b80156128f25760008060016101000a81548160ff0219169083151502179055505b50565b600060019054906101000a900460ff168061291b575060008054906101000a900460ff16155b61295a576040517f08c379a000000000000000000000000000000000000000000000000000000000815260040161295190613e2f565b60405180910390fd5b60008060019054906101000a900460ff1615905080156129aa576001600060016101000a81548160ff02191690831515021790555060016000806101000a81548160ff0219169083151502179055505b83603590805190602001906129c0929190612df3565b5082603690805190602001906129d7929190612df3565b5081603790805190602001906129ee929190612e79565b5060005b8251811015612aa657600160386000858481518110612a3a577f4e487b7100000000000000000000000000000000000000000000000000000000600052603260045260246000fd5b602002602001015173ffffffffffffffffffffffffffffffffffffffff1673ffffffffffffffffffffffffffffffffffffffff16815260200190815260200160002060006101000a81548160ff0219169083151502179055508080612a9e906144be565b9150506129f2565b50731820a4b7618bde71dce8cdc73aab6c95905fad2473ffffffffffffffffffffffffffffffffffffffff166329965a1d307fac7fbab5f54a3ca8194167523c6753bfeb96a445279294b6125b68cce2177054306040518463ffffffff1660e01b8152600401612b1893929190613cb9565b600060405180830381600087803b158015612b3257600080fd5b505af1158015612b46573d6000803e3d6000fd5b50505050731820a4b7618bde71dce8cdc73aab6c95905fad2473ffffffffffffffffffffffffffffffffffffffff166329965a1d307faea199e31a596269b42cdafd93407f14436db6e4cad65417994c2eb37381e05a306040518463ffffffff1660e01b8152600401612bbb93929190613cb9565b600060405180830381600087803b158015612bd557600080fd5b505af1158015612be9573d6000803e3d6000fd5b505050508015612c0e5760008060016101000a81548160ff0219169083151502179055505b50505050565b600073ffffffffffffffffffffffffffffffffffffffff168573ffffffffffffffffffffffffffffffffffffffff161415612c84576040517f08c379a0000000000000000000000000000000000000000000000000000000008152600401612c7b90613e4f565b60405180910390fd5b6000612c8e611e58565b9050612c9d8160008888612803565b8460346000828254612caf9190614165565b9250508190555084603360008873ffffffffffffffffffffffffffffffffffffffff1673ffffffffffffffffffffffffffffffffffffffff1681526020019081526020016000206000828254612d059190614165565b92505081905550612d1c81600088888888886121a1565b8573ffffffffffffffffffffffffffffffffffffffff168173ffffffffffffffffffffffffffffffffffffffff167f2fe5be0146f74c5bce36c0b80911af6c7d86ff27e89d5cfa61fc681327954e5d878787604051612d7d9392919061400a565b60405180910390a38573ffffffffffffffffffffffffffffffffffffffff16600073ffffffffffffffffffffffffffffffffffffffff167fddf252ad1be2c89b69c2b068fc378daa952ba7f163c4a11628f55a4df523b3ef87604051612de39190613fef565b60405180910390a3505050505050565b828054612dff9061448c565b90600052602060002090601f016020900481019282612e215760008555612e68565b82601f10612e3a57805160ff1916838001178555612e68565b82800160010185558215612e68579182015b82811115612e67578251825591602001919060010190612e4c565b5b509050612e759190612f03565b5090565b828054828255906000526020600020908101928215612ef2579160200282015b82811115612ef15782518260006101000a81548173ffffffffffffffffffffffffffffffffffffffff021916908373ffffffffffffffffffffffffffffffffffffffff16021790555091602001919060010190612e99565b5b509050612eff9190612f03565b5090565b5b80821115612f1c576000816000905550600101612f04565b5090565b6000612f33612f2e846140c4565b614093565b905082815260208101848484011115612f4b57600080fd5b612f5684828561444a565b509392505050565b600081359050612f6d816145e1565b92915050565b600081519050612f82816145e1565b92915050565b600082601f830112612f9957600080fd5b8135612fa9848260208601612f20565b91505092915050565b600081359050612fc1816145f8565b92915050565b600060208284031215612fd957600080fd5b6000612fe784828501612f5e565b91505092915050565b60006020828403121561300257600080fd5b600061301084828501612f73565b91505092915050565b6000806040838503121561302c57600080fd5b600061303a85828601612f5e565b925050602061304b85828601612f5e565b9150509250929050565b60008060006060848603121561306a57600080fd5b600061307886828701612f5e565b935050602061308986828701612f5e565b925050604061309a86828701612fb2565b9150509250925092565b600080600080600060a086880312156130bc57600080fd5b60006130ca88828901612f5e565b95505060206130db88828901612f5e565b94505060406130ec88828901612fb2565b935050606086013567ffffffffffffffff81111561310957600080fd5b61311588828901612f88565b925050608086013567ffffffffffffffff81111561313257600080fd5b61313e88828901612f88565b9150509295509295909350565b6000806040838503121561315e57600080fd5b600061316c85828601612f5e565b925050602061317d85828601612fb2565b9150509250929050565b60008060006060848603121561319c57600080fd5b60006131aa86828701612f5e565b93505060206131bb86828701612fb2565b925050604084013567ffffffffffffffff8111156131d857600080fd5b6131e486828701612f88565b9150509250925092565b6000806000806080858703121561320457600080fd5b600061321287828801612f5e565b945050602061322387828801612fb2565b935050604085013567ffffffffffffffff81111561324057600080fd5b61324c87828801612f88565b925050606085013567ffffffffffffffff81111561326957600080fd5b61327587828801612f88565b91505092959194509250565b60006020828403121561329357600080fd5b60006132a184828501612fb2565b91505092915050565b600080604083850312156132bd57600080fd5b60006132cb85828601612fb2565b925050602083013567ffffffffffffffff8111156132e857600080fd5b6132f485828601612f88565b9150509250929050565b600061330a8383613316565b60208301905092915050565b61331f816143eb565b82525050565b61332e816143eb565b82525050565b600061333f82614104565b6133498185614132565b9350613354836140f4565b8060005b8381101561338557815161336c88826132fe565b975061337783614125565b925050600181019050613358565b5085935050505092915050565b61339b816143fd565b82525050565b6133aa81614409565b82525050565b60006133bb8261410f565b6133c58185614143565b93506133d5818560208601614459565b6133de816145c3565b840191505092915050565b60006133f48261411a565b6133fe8185614154565b935061340e818560208601614459565b613417816145c3565b840191505092915050565b600061342f602583614154565b91507f4552433737373a20617070726f76652066726f6d20746865207a65726f20616460008301527f64726573730000000000000000000000000000000000000000000000000000006020830152604082019050919050565b6000613495602283614154565b91507f4552433737373a2073656e642066726f6d20746865207a65726f20616464726560008301527f73730000000000000000000000000000000000000000000000000000000000006020830152604082019050919050565b60006134fb602783614154565b91507f4552433737373a207472616e7366657220616d6f756e7420657863656564732060008301527f62616c616e6365000000000000000000000000000000000000000000000000006020830152604082019050919050565b6000613561604083614154565b91507f70726963652076657279206c6f77206d7573742062652067726561746572207460008301527f68656e206f7220657175616c20746f206261736520746f6b656e2070726963656020830152604082019050919050565b60006135c7602283614154565b91507f4552433737373a206275726e2066726f6d20746865207a65726f20616464726560008301527f73730000000000000000000000000000000000000000000000000000000000006020830152604082019050919050565b600061362d602483614154565b91507f4552433737373a20617574686f72697a696e672073656c66206173206f70657260008301527f61746f72000000000000000000000000000000000000000000000000000000006020830152604082019050919050565b6000613693602183614154565b91507f4552433737373a207265766f6b696e672073656c66206173206f70657261746f60008301527f72000000000000000000000000000000000000000000000000000000000000006020830152604082019050919050565b60006136f9602e83614154565b91507f496e697469616c697a61626c653a20636f6e747261637420697320616c72656160008301527f647920696e697469616c697a65640000000000000000000000000000000000006020830152604082019050919050565b600061375f602083614154565b91507f4552433737373a206d696e7420746f20746865207a65726f20616464726573736000830152602082019050919050565b600061379f604d83614154565b91507f4552433737373a20746f6b656e20726563697069656e7420636f6e747261637460008301527f20686173206e6f20696d706c656d656e74657220666f7220455243373737546f60208301527f6b656e73526563697069656e74000000000000000000000000000000000000006040830152606082019050919050565b600061382b602483614154565b91507f4552433737373a207472616e7366657220746f20746865207a65726f2061646460008301527f72657373000000000000000000000000000000000000000000000000000000006020830152604082019050919050565b6000613891602083614154565b91507f6f6e6c79206f776e65722063616e2072756e20746869732066756e6374696f6e6000830152602082019050919050565b60006138d1601583614154565b91507f62757965722073686f756c64206861766520454f4100000000000000000000006000830152602082019050919050565b6000613911602883614154565b91507f796f7520646f6e2774206861766520656e6f75676820746f6b656e7320746f2060008301527f77697468647261770000000000000000000000000000000000000000000000006020830152604082019050919050565b6000613977602c83614154565b91507f4552433737373a2063616c6c6572206973206e6f7420616e206f70657261746f60008301527f7220666f7220686f6c64657200000000000000000000000000000000000000006020830152604082019050919050565b60006139dd602983614154565b91507f4552433737373a207472616e7366657220616d6f756e7420657863656564732060008301527f616c6c6f77616e636500000000000000000000000000000000000000000000006020830152604082019050919050565b6000613a43602683614154565b91507f4552433737373a207472616e736665722066726f6d20746865207a65726f206160008301527f64647265737300000000000000000000000000000000000000000000000000006020830152604082019050919050565b6000613aa9601783614154565b91507f4e6f2065746865722076616c75652070726f76696465640000000000000000006000830152602082019050919050565b6000613ae9602383614154565b91507f4552433737373a206275726e20616d6f756e7420657863656564732062616c6160008301527f6e636500000000000000000000000000000000000000000000000000000000006020830152604082019050919050565b6000613b4f602083614154565b91507f4552433737373a2073656e6420746f20746865207a65726f20616464726573736000830152602082019050919050565b6000613b8f602383614154565b91507f4552433737373a20617070726f766520746f20746865207a65726f206164647260008301527f65737300000000000000000000000000000000000000000000000000000000006020830152604082019050919050565b613bf181614433565b82525050565b613c008161443d565b82525050565b6000602082019050613c1b6000830184613325565b92915050565b600060c082019050613c366000830189613325565b613c436020830188613325565b613c506040830187613325565b613c5d6060830186613be8565b8181036080830152613c6f81856133b0565b905081810360a0830152613c8381846133b0565b9050979650505050505050565b6000604082019050613ca56000830185613325565b613cb260208301846133a1565b9392505050565b6000606082019050613cce6000830186613325565b613cdb60208301856133a1565b613ce86040830184613325565b949350505050565b60006020820190508181036000830152613d0a8184613334565b905092915050565b6000602082019050613d276000830184613392565b92915050565b60006020820190508181036000830152613d4781846133e9565b905092915050565b60006020820190508181036000830152613d6881613422565b9050919050565b60006020820190508181036000830152613d8881613488565b9050919050565b60006020820190508181036000830152613da8816134ee565b9050919050565b60006020820190508181036000830152613dc881613554565b9050919050565b60006020820190508181036000830152613de8816135ba565b9050919050565b60006020820190508181036000830152613e0881613620565b9050919050565b60006020820190508181036000830152613e2881613686565b9050919050565b60006020820190508181036000830152613e48816136ec565b9050919050565b60006020820190508181036000830152613e6881613752565b9050919050565b60006020820190508181036000830152613e8881613792565b9050919050565b60006020820190508181036000830152613ea88161381e565b9050919050565b60006020820190508181036000830152613ec881613884565b9050919050565b60006020820190508181036000830152613ee8816138c4565b9050919050565b60006020820190508181036000830152613f0881613904565b9050919050565b60006020820190508181036000830152613f288161396a565b9050919050565b60006020820190508181036000830152613f48816139d0565b9050919050565b60006020820190508181036000830152613f6881613a36565b9050919050565b60006020820190508181036000830152613f8881613a9c565b9050919050565b60006020820190508181036000830152613fa881613adc565b9050919050565b60006020820190508181036000830152613fc881613b42565b9050919050565b60006020820190508181036000830152613fe881613b82565b9050919050565b60006020820190506140046000830184613be8565b92915050565b600060608201905061401f6000830186613be8565b818103602083015261403181856133b0565b9050818103604083015261404581846133b0565b9050949350505050565b60006040820190506140646000830185613be8565b6140716020830184613be8565b9392505050565b600060208201905061408d6000830184613bf7565b92915050565b6000604051905081810181811067ffffffffffffffff821117156140ba576140b9614594565b5b8060405250919050565b600067ffffffffffffffff8211156140df576140de614594565b5b601f19601f8301169050602081019050919050565b6000819050602082019050919050565b600081519050919050565b600081519050919050565b600081519050919050565b6000602082019050919050565b600082825260208201905092915050565b600082825260208201905092915050565b600082825260208201905092915050565b600061417082614433565b915061417b83614433565b9250827fffffffffffffffffffffffffffffffffffffffffffffffffffffffffffffffff038211156141b0576141af614507565b5b828201905092915050565b60006141c682614433565b91506141d183614433565b9250826141e1576141e0614536565b5b828204905092915050565b6000808291508390505b60018511156142365780860481111561421257614211614507565b5b60018516156142215780820291505b808102905061422f856145d4565b94506141f6565b94509492505050565b600061424a82614433565b915061425583614433565b92506142827fffffffffffffffffffffffffffffffffffffffffffffffffffffffffffffffff848461428a565b905092915050565b60008261429a5760019050614356565b816142a85760009050614356565b81600181146142be57600281146142c8576142f7565b6001915050614356565b60ff8411156142da576142d9614507565b5b8360020a9150848211156142f1576142f0614507565b5b50614356565b5060208310610133831016604e8410600b841016171561432c5782820a90508381111561432757614326614507565b5b614356565b61433984848460016141ec565b925090508184048111156143505761434f614507565b5b81810290505b9392505050565b600061436882614433565b915061437383614433565b9250817fffffffffffffffffffffffffffffffffffffffffffffffffffffffffffffffff04831182151516156143ac576143ab614507565b5b828202905092915050565b60006143c282614433565b91506143cd83614433565b9250828210156143e0576143df614507565b5b828203905092915050565b60006143f682614413565b9050919050565b60008115159050919050565b6000819050919050565b600073ffffffffffffffffffffffffffffffffffffffff82169050919050565b6000819050919050565b600060ff82169050919050565b82818337600083830152505050565b60005b8381101561447757808201518184015260208101905061445c565b83811115614486576000848401525b50505050565b600060028204905060018216806144a457607f821691505b602082108114156144b8576144b7614565565b5b50919050565b60006144c982614433565b91507fffffffffffffffffffffffffffffffffffffffffffffffffffffffffffffffff8214156144fc576144fb614507565b5b600182019050919050565b7f4e487b7100000000000000000000000000000000000000000000000000000000600052601160045260246000fd5b7f4e487b7100000000000000000000000000000000000000000000000000000000600052601260045260246000fd5b7f4e487b7100000000000000000000000000000000000000000000000000000000600052602260045260246000fd5b7f4e487b7100000000000000000000000000000000000000000000000000000000600052604160045260246000fd5b6000601f19601f8301169050919050565b60008160011c9050919050565b6145ea816143eb565b81146145f557600080fd5b50565b61460181614433565b811461460c57600080fd5b5056fe5631205265616c2045737461746520496e6e6f76617469766520546563686e6f6c6f67696573a2646970667358221220dec067104ebac71a10b6bc2cd30ce1687b8cf1a004cce63fba40c49e48e334f564736f6c63430008000033",
  "linkReferences": {},
  "deployedLinkReferences": {}
}